{
  "contractName": "Montyhall",
  "abi": [
    {
      "constant": true,
      "inputs": [],
      "name": "numberOfBets",
      "outputs": [
        {
          "name": "",
          "type": "uint256"
        }
      ],
      "payable": false,
      "stateMutability": "view",
      "type": "function"
    },
    {
      "constant": true,
      "inputs": [
        {
          "name": "",
          "type": "address"
        }
      ],
      "name": "playerInfo",
      "outputs": [
        {
          "name": "amountBet",
          "type": "uint256"
        },
        {
          "name": "numberSelected",
          "type": "uint256"
        }
      ],
      "payable": false,
      "stateMutability": "view",
      "type": "function"
    },
    {
      "constant": true,
      "inputs": [],
      "name": "owner",
      "outputs": [
        {
          "name": "",
          "type": "address"
        }
      ],
      "payable": false,
      "stateMutability": "view",
      "type": "function"
    },
    {
      "constant": true,
      "inputs": [],
      "name": "minimumBet",
      "outputs": [
        {
          "name": "",
          "type": "uint256"
        }
      ],
      "payable": false,
      "stateMutability": "view",
      "type": "function"
    },
    {
      "constant": true,
      "inputs": [],
      "name": "maxAmountOfBets",
      "outputs": [
        {
          "name": "",
          "type": "uint256"
        }
      ],
      "payable": false,
      "stateMutability": "view",
      "type": "function"
    },
    {
      "constant": true,
      "inputs": [
        {
          "name": "",
          "type": "uint256"
        }
      ],
      "name": "players",
      "outputs": [
        {
          "name": "",
          "type": "address"
        }
      ],
      "payable": false,
      "stateMutability": "view",
      "type": "function"
    },
    {
      "constant": true,
      "inputs": [],
      "name": "totalBet",
      "outputs": [
        {
          "name": "",
          "type": "uint256"
        }
      ],
      "payable": false,
      "stateMutability": "view",
      "type": "function"
    },
    {
      "inputs": [
        {
          "name": "_minimumBet",
          "type": "uint256"
        }
      ],
      "payable": false,
      "stateMutability": "nonpayable",
      "type": "constructor"
    },
    {
      "payable": true,
      "stateMutability": "payable",
      "type": "fallback"
    },
    {
      "constant": false,
      "inputs": [],
      "name": "kill",
      "outputs": [],
      "payable": false,
      "stateMutability": "nonpayable",
      "type": "function"
    },
    {
      "constant": true,
      "inputs": [
        {
          "name": "player",
          "type": "address"
        }
      ],
      "name": "checkPlayerExists",
      "outputs": [
        {
          "name": "",
          "type": "bool"
        }
      ],
      "payable": false,
      "stateMutability": "view",
      "type": "function"
    },
    {
      "constant": false,
      "inputs": [
        {
          "name": "numberSelected",
          "type": "uint256"
        }
      ],
      "name": "bet",
      "outputs": [],
      "payable": true,
      "stateMutability": "payable",
      "type": "function"
    },
    {
      "constant": false,
      "inputs": [],
      "name": "generateNumberWinner",
      "outputs": [],
      "payable": false,
      "stateMutability": "nonpayable",
      "type": "function"
    },
    {
      "constant": false,
      "inputs": [
        {
          "name": "numberWinner",
          "type": "uint256"
        }
      ],
      "name": "distributePrizes",
      "outputs": [],
      "payable": false,
      "stateMutability": "nonpayable",
      "type": "function"
    }
  ],
  "bytecode": "0x608060405267016345785d8a0000600155606460045534801561002157600080fd5b50604051602080610a7983398101806040528101908080519060200190929190505050336000806101000a81548173ffffffffffffffffffffffffffffffffffffffff021916908373ffffffffffffffffffffffffffffffffffffffff160217905550600081111561009557806001819055505b506109d4806100a56000396000f3006080604052600436106100ba576000357c0100000000000000000000000000000000000000000000000000000000900463ffffffff1680630a50e361146100bc5780632ca8c6d3146100d35780634081d916146100fe57806341c0e1b5146101595780634b114691146101705780636ca3fc3b146101ce5780637365870b146101fb5780638da5cb5b1461021b578063c38a8afd14610272578063e08a96cd1461029d578063f71d96cb146102c8578063fe5e185314610335575b005b3480156100c857600080fd5b506100d1610360565b005b3480156100df57600080fd5b506100e86103b5565b6040518082815260200191505060405180910390f35b34801561010a57600080fd5b5061013f600480360381019080803573ffffffffffffffffffffffffffffffffffffffff1690602001909291905050506103bb565b604051808215151515815260200191505060405180910390f35b34801561016557600080fd5b5061016e61045e565b005b34801561017c57600080fd5b506101b1600480360381019080803573ffffffffffffffffffffffffffffffffffffffff1690602001909291905050506104ef565b604051808381526020018281526020019250505060405180910390f35b3480156101da57600080fd5b506101f960048036038101908080359060200190929190505050610513565b005b61021960048036038101908080359060200190929190505050610762565b005b34801561022757600080fd5b506102306108be565b604051808273ffffffffffffffffffffffffffffffffffffffff1673ffffffffffffffffffffffffffffffffffffffff16815260200191505060405180910390f35b34801561027e57600080fd5b506102876108e3565b6040518082815260200191505060405180910390f35b3480156102a957600080fd5b506102b26108e9565b6040518082815260200191505060405180910390f35b3480156102d457600080fd5b506102f3600480360381019080803590602001909291905050506108ef565b604051808273ffffffffffffffffffffffffffffffffffffffff1673ffffffffffffffffffffffffffffffffffffffff16815260200191505060405180910390f35b34801561034157600080fd5b5061034a61092d565b6040518082815260200191505060405180910390f35b600080600042925043915060016003834085604051808360001916600019168152602001828152602001925050506040518091039020600190048115156103a357fe5b060190506103b081610513565b505050565b60035481565b600080600090505b600580549050811015610453578273ffffffffffffffffffffffffffffffffffffffff166005828154811015156103f657fe5b9060005260206000200160009054906101000a900473ffffffffffffffffffffffffffffffffffffffff1673ffffffffffffffffffffffffffffffffffffffff1614156104465760019150610458565b80806001019150506103c3565b600091505b50919050565b6000809054906101000a900473ffffffffffffffffffffffffffffffffffffffff1673ffffffffffffffffffffffffffffffffffffffff163373ffffffffffffffffffffffffffffffffffffffff1614156104ed576000809054906101000a900473ffffffffffffffffffffffffffffffffffffffff1673ffffffffffffffffffffffffffffffffffffffff16ff5b565b60066020528060005260406000206000915090508060000154908060010154905082565b61051b610933565b6000806000806000809450600093505b60058054905084101561066c5760058481548110151561054757fe5b9060005260206000200160009054906101000a900473ffffffffffffffffffffffffffffffffffffffff16925086600660008573ffffffffffffffffffffffffffffffffffffffff1673ffffffffffffffffffffffffffffffffffffffff16815260200190815260200160002060010154141561060d578286866064811015156105cd57fe5b602002019073ffffffffffffffffffffffffffffffffffffffff16908173ffffffffffffffffffffffffffffffffffffffff168152505084806001019550505b600660008473ffffffffffffffffffffffffffffffffffffffff1673ffffffffffffffffffffffffffffffffffffffff16815260200190815260200160002060008082016000905560018201600090555050838060010194505061052b565b606460025481151561067a57fe5b049150600090505b8481101561073957600073ffffffffffffffffffffffffffffffffffffffff1686826064811015156106b057fe5b602002015173ffffffffffffffffffffffffffffffffffffffff1614151561072c5785816064811015156106e057fe5b602002015173ffffffffffffffffffffffffffffffffffffffff166108fc839081150290604051600060405180830381858888f1935050505015801561072a573d6000803e3d6000fd5b505b8080600101915050610682565b60006005816107489190610957565b506000600281905550600060038190555050505050505050565b61076b336103bb565b15151561077757600080fd5b60018110158015610789575060038111155b151561079457600080fd5b60015434101515156107a557600080fd5b34600660003373ffffffffffffffffffffffffffffffffffffffff1673ffffffffffffffffffffffffffffffffffffffff1681526020019081526020016000206000018190555080600660003373ffffffffffffffffffffffffffffffffffffffff1673ffffffffffffffffffffffffffffffffffffffff1681526020019081526020016000206001018190555060036000815480929190600101919050555060053390806001815401808255809150509060018203906000526020600020016000909192909190916101000a81548173ffffffffffffffffffffffffffffffffffffffff021916908373ffffffffffffffffffffffffffffffffffffffff160217905550503460026000828254019250508190555050565b6000809054906101000a900473ffffffffffffffffffffffffffffffffffffffff1681565b60015481565b60045481565b6005818154811015156108fe57fe5b906000526020600020016000915054906101000a900473ffffffffffffffffffffffffffffffffffffffff1681565b60025481565b610c8060405190810160405280606490602082028038833980820191505090505090565b81548183558181111561097e5781836000526020600020918201910161097d9190610983565b5b505050565b6109a591905b808211156109a1576000816000905550600101610989565b5090565b905600a165627a7a723058202f997f6e4449c793f709d1ab65c12daff072e3878f64ec54546c649c3545be3f0029",
  "source": "pragma solidity 0.4.23;\n\ncontract Montyhall {\n   address public owner;\n   uint256 public minimumBet = 100 finney;\n   uint256 public totalBet;\n   uint256 public numberOfBets;\n   uint256 public maxAmountOfBets = 100;\n   address[] public players;\n\n\n   struct Player {\n      uint256 amountBet;\n      uint256 numberSelected;\n   }\n   \n   mapping(address => Player) public playerInfo;\n\n   function() public payable {}\n\n   function Montyhall(uint256 _minimumBet) public {\n      owner = msg.sender;\n      if(_minimumBet > 0 ) minimumBet = _minimumBet;\t\n   }\n\n   function kill() public {\n      if(msg.sender == owner) selfdestruct(owner);\n   }\n\n   function checkPlayerExists(address player) public constant returns(bool){\n      for(uint256 i = 0; i < players.length; i++){\n         if(players[i] == player) return true;\n      }\n      return false;\n   }\n\n   // To bet for a number between 1 and 3 both inclusive\n   function bet(uint256 numberSelected) public payable {\n      require(!checkPlayerExists(msg.sender));\n      require(numberSelected >= 1 && numberSelected <= 3);\n      require(msg.value >= minimumBet);\n      playerInfo[msg.sender].amountBet = msg.value;\n      playerInfo[msg.sender].numberSelected = numberSelected;\n      numberOfBets++;\n      players.push(msg.sender);\n      totalBet += msg.value;\n   }\n\n   // Generates the winning number between 1 and 3\n   function generateNumberWinner() public {\n      uint time = block.timestamp;\n      uint b = block.number; \n      uint256 numberGenerated = uint256(keccak256(blockhash(b), time)) % 3 + 1;\n      distributePrizes(numberGenerated);\n   }\n\n    // Ether distribution to the winner\n    function distributePrizes(uint256 numberWinner) public {\n        address[100] memory winners;\n        uint256 count = 0;\n\n        for(uint256 i = 0; i < players.length; i++){\n            address playerAddress = players[i];\n            if(playerInfo[playerAddress].numberSelected == numberWinner){\n                winners[count] = playerAddress;\n                count++;\n            }\n            delete playerInfo[playerAddress];\n        }\n\n        uint256 winnerEtherAmount = totalBet / winners.length;\n\n        for(uint256 j = 0; j < count; j++){\n         if(winners[j] != address(0))\n            winners[j].transfer(winnerEtherAmount);\n        }\n      \n        players.length = 0;\n        totalBet = 0;\n        numberOfBets = 0;\n   }\n}\n",
  "sourcePath": "/home/derzse/work/schoolofai/Montyhall/contracts/Montyhall.sol",
  "compiler": {
    "name": "solc",
    "version": "0.4.23+commit.124ca40d.Emscripten.clang"
  },
  "schemaVersion": "2.0.0",
  "updatedAt": "2018-04-27T00:00:27.820Z"
}